{
  "address": "0x22b48296B9d670F0B3601c4FEec32fF6B81a4BF7",
  "abi": [
    {
      "inputs": [
        {
          "internalType": "string",
          "name": "_greeting",
          "type": "string"
        }
      ],
      "stateMutability": "nonpayable",
      "type": "constructor"
    },
    {
      "inputs": [],
      "name": "greet",
      "outputs": [
        {
          "internalType": "string",
          "name": "",
          "type": "string"
        }
      ],
      "stateMutability": "view",
      "type": "function"
    },
    {
      "inputs": [],
      "name": "greeting",
      "outputs": [
        {
          "internalType": "string",
          "name": "",
          "type": "string"
        }
      ],
      "stateMutability": "view",
      "type": "function"
    },
    {
      "inputs": [
        {
          "internalType": "string",
          "name": "_greeting",
          "type": "string"
        }
      ],
      "name": "setGreeting",
      "outputs": [],
      "stateMutability": "nonpayable",
      "type": "function"
    }
  ],
  "transactionHash": "0x4675f101375566066f4db2061fda71156d5d87b08036a3a4dc8322b613ef3743",
  "args": [
    "Hello"
  ],
  "solcInputHash": "d1ee79c317df024203c0611529670040",
  "bytecode": "0x60806040523480156200001157600080fd5b50604051620008c9380380620008c9833981810160405281019062000037919062000185565b80600090805190602001906200004f92919062000057565b50506200035a565b82805462000065906200026b565b90600052602060002090601f016020900481019282620000895760008555620000d5565b82601f10620000a457805160ff1916838001178555620000d5565b82800160010185558215620000d5579182015b82811115620000d4578251825591602001919060010190620000b7565b5b509050620000e49190620000e8565b5090565b5b8082111562000103576000816000905550600101620000e9565b5090565b60006200011e6200011884620001ff565b620001d6565b9050828152602081018484840111156200013d576200013c6200033a565b5b6200014a84828562000235565b509392505050565b600082601f8301126200016a576200016962000335565b5b81516200017c84826020860162000107565b91505092915050565b6000602082840312156200019e576200019d62000344565b5b600082015167ffffffffffffffff811115620001bf57620001be6200033f565b5b620001cd8482850162000152565b91505092915050565b6000620001e2620001f5565b9050620001f08282620002a1565b919050565b6000604051905090565b600067ffffffffffffffff8211156200021d576200021c62000306565b5b620002288262000349565b9050602081019050919050565b60005b838110156200025557808201518184015260208101905062000238565b8381111562000265576000848401525b50505050565b600060028204905060018216806200028457607f821691505b602082108114156200029b576200029a620002d7565b5b50919050565b620002ac8262000349565b810181811067ffffffffffffffff82111715620002ce57620002cd62000306565b5b80604052505050565b7f4e487b7100000000000000000000000000000000000000000000000000000000600052602260045260246000fd5b7f4e487b7100000000000000000000000000000000000000000000000000000000600052604160045260246000fd5b600080fd5b600080fd5b600080fd5b600080fd5b6000601f19601f8301169050919050565b61055f806200036a6000396000f3fe608060405234801561001057600080fd5b50600436106100415760003560e01c8063a413686214610046578063cfae321714610062578063ef690cc014610080575b600080fd5b610060600480360381019061005b91906102eb565b61009e565b005b61006a6100b8565b604051610077919061036d565b60405180910390f35b61008861014a565b604051610095919061036d565b60405180910390f35b80600090805190602001906100b49291906101d8565b5050565b6060600080546100c790610443565b80601f01602080910402602001604051908101604052809291908181526020018280546100f390610443565b80156101405780601f1061011557610100808354040283529160200191610140565b820191906000526020600020905b81548152906001019060200180831161012357829003601f168201915b5050505050905090565b6000805461015790610443565b80601f016020809104026020016040519081016040528092919081815260200182805461018390610443565b80156101d05780601f106101a5576101008083540402835291602001916101d0565b820191906000526020600020905b8154815290600101906020018083116101b357829003601f168201915b505050505081565b8280546101e490610443565b90600052602060002090601f016020900481019282610206576000855561024d565b82601f1061021f57805160ff191683800117855561024d565b8280016001018555821561024d579182015b8281111561024c578251825591602001919060010190610231565b5b50905061025a919061025e565b5090565b5b8082111561027757600081600090555060010161025f565b5090565b600061028e610289846103b4565b61038f565b9050828152602081018484840111156102aa576102a9610509565b5b6102b5848285610401565b509392505050565b600082601f8301126102d2576102d1610504565b5b81356102e284826020860161027b565b91505092915050565b60006020828403121561030157610300610513565b5b600082013567ffffffffffffffff81111561031f5761031e61050e565b5b61032b848285016102bd565b91505092915050565b600061033f826103e5565b61034981856103f0565b9350610359818560208601610410565b61036281610518565b840191505092915050565b600060208201905081810360008301526103878184610334565b905092915050565b60006103996103aa565b90506103a58282610475565b919050565b6000604051905090565b600067ffffffffffffffff8211156103cf576103ce6104d5565b5b6103d882610518565b9050602081019050919050565b600081519050919050565b600082825260208201905092915050565b82818337600083830152505050565b60005b8381101561042e578082015181840152602081019050610413565b8381111561043d576000848401525b50505050565b6000600282049050600182168061045b57607f821691505b6020821081141561046f5761046e6104a6565b5b50919050565b61047e82610518565b810181811067ffffffffffffffff8211171561049d5761049c6104d5565b5b80604052505050565b7f4e487b7100000000000000000000000000000000000000000000000000000000600052602260045260246000fd5b7f4e487b7100000000000000000000000000000000000000000000000000000000600052604160045260246000fd5b600080fd5b600080fd5b600080fd5b600080fd5b6000601f19601f830116905091905056fea2646970667358221220af6021159b55b9ce68e9ed84a8f12472d4e09e33a7594a4ce9292d2d02bb1a9164736f6c63430008070033",
  "devdoc": {
    "custom:experimental": "This is an experimental contract.",
    "details": "All function calls are currently implemented without side effects",
    "kind": "dev",
    "methods": {
      "greet()": {
        "returns": {
          "_0": "Greeting string"
        }
      },
      "setGreeting(string)": {
        "details": "Contains a console log output",
        "params": {
          "_greeting": "The greeting phrase"
        }
      }
    },
    "title": "An example Greeter contract",
    "version": 1
  },
  "userdoc": {
    "kind": "user",
    "methods": {
      "greet()": {
        "notice": "Returns a greeting phrase"
      },
      "setGreeting(string)": {
        "notice": "Sets a greeting phrase"
      }
    },
    "notice": "This contract is only for simulation purposes",
    "version": 1
  },
  "storageLayout": {
    "storage": [
      {
        "astId": 4,
        "contract": "contracts/Greeter.sol:Greeter",
        "label": "greeting",
        "offset": 0,
        "slot": "0",
        "type": "t_string_storage"
      }
    ],
    "types": {
      "t_string_storage": {
        "encoding": "bytes",
        "label": "string",
        "numberOfBytes": "32"
      }
    }
  }
}